{
  "transactions": [
    {
      "hash": "0xbd8b61d47142a5e6221f9ff012c9b21b4a67a1be9a682409cbf24048071bbe4d",
      "transactionType": "CALL",
      "contractName": null,
      "contractAddress": "0x5aC75c284102a3b54d62C332bd62d7b0AFccA87a",
      "function": "mintNft(string)",
      "arguments": [
        "ipfs://bafybeig37ioir76s7mg5oobetncojcm3c3hxasyd4rvid4jqhy4gkaheg4/?filename=0-PUG.json"
      ],
      "transaction": {
        "from": "0xEe56334d234E8F9767444E33dCC45A993769117d",
        "to": "0x5aC75c284102a3b54d62C332bd62d7b0AFccA87a",
        "gas": "0x3d60d",
        "value": "0x0",
        "input": "0xda86f4a900000000000000000000000000000000000000000000000000000000000000200000000000000000000000000000000000000000000000000000000000000057697066733a2f2f62616679626569673337696f6972373673376d67356f6f6265746e636f6a636d3363336878617379643472766964346a71687934676b61686567342f3f66696c656e616d653d302d5055472e6a736f6e000000000000000000",
        "nonce": "0x7",
        "chainId": "0xaa36a7"
      },
      "additionalContracts": [],
      "isFixedGasLimit": false
    }
  ],
  "receipts": [
    {
      "status": "0x1",
      "cumulativeGasUsed": "0xd749e2",
      "logs": [
        {
          "address": "0x5aC75c284102a3b54d62C332bd62d7b0AFccA87a",
          "topics": [
            "0xddf252ad1be2c89b69c2b068fc378daa952ba7f163c4a11628f55a4df523b3ef",
            "0x0000000000000000000000000000000000000000000000000000000000000000",
            "0x000000000000000000000000ee56334d234e8f9767444e33dcc45a993769117d",
            "0x0000000000000000000000000000000000000000000000000000000000000000"
          ],
          "data": "0x",
          "blockHash": "0x80d60cf77cb66a697455e8c5a9701e5e02822e813f3ce1f2f7a2fa2593b57240",
          "blockNumber": "0x689be3",
          "transactionHash": "0xbd8b61d47142a5e6221f9ff012c9b21b4a67a1be9a682409cbf24048071bbe4d",
          "transactionIndex": "0x46",
          "logIndex": "0x70",
          "removed": false
        }
      ],
      "logsBloom": "0x00000000000000000000000000000000000000000000000000000000000000000000900000000000000000000000000000000000000000000000000000800000000000000000000000000008000000000000000000000000008000000000000000000000020000000000000000000800000000000000000000000010000000000000000000000000000000000000000000000000000000000000000000000100000000000000000000000000000000000000000000000000000000000000000000000002000000000000000000000000000000000000000000000000000020000000000000001000000000000000000000000000000000000000000000000000",
      "type": "0x2",
      "transactionHash": "0xbd8b61d47142a5e6221f9ff012c9b21b4a67a1be9a682409cbf24048071bbe4d",
      "transactionIndex": "0x46",
      "blockHash": "0x80d60cf77cb66a697455e8c5a9701e5e02822e813f3ce1f2f7a2fa2593b57240",
      "blockNumber": "0x689be3",
      "gasUsed": "0x2c6fe",
      "effectiveGasPrice": "0x3c8365744",
      "from": "0xEe56334d234E8F9767444E33dCC45A993769117d",
      "to": "0x5aC75c284102a3b54d62C332bd62d7b0AFccA87a",
      "contractAddress": null
    }
  ],
  "libraries": [],
  "pending": [],
  "returns": {},
  "timestamp": 1728640831,
  "chain": 11155111,
  "commit": "cff9acb"
}